{
  "contractName": "ExchangePlatform",
  "abi": [
    {
      "inputs": [],
      "payable": false,
      "stateMutability": "nonpayable",
      "type": "constructor"
    },
    {
      "anonymous": false,
      "inputs": [
        {
          "indexed": false,
          "internalType": "bool",
          "name": "updated",
          "type": "bool"
        }
      ],
      "name": "ArrayUpdated",
      "type": "event"
    },
    {
      "anonymous": false,
      "inputs": [
        {
          "indexed": false,
          "internalType": "string",
          "name": "smartId",
          "type": "string"
        },
        {
          "indexed": false,
          "internalType": "address payable",
          "name": "owner",
          "type": "address"
        },
        {
          "indexed": false,
          "internalType": "uint256",
          "name": "microgrid",
          "type": "uint256"
        },
        {
          "indexed": false,
          "internalType": "uint256",
          "name": "energyReq",
          "type": "uint256"
        },
        {
          "indexed": false,
          "internalType": "bool",
          "name": "receiveStatus",
          "type": "bool"
        }
      ],
      "name": "BuyerChecked",
      "type": "event"
    },
    {
      "anonymous": false,
      "inputs": [
        {
          "indexed": false,
          "internalType": "string",
          "name": "smartId",
          "type": "string"
        },
        {
          "indexed": false,
          "internalType": "address payable",
          "name": "owner",
          "type": "address"
        },
        {
          "indexed": false,
          "internalType": "uint256",
          "name": "microgrid",
          "type": "uint256"
        },
        {
          "indexed": false,
          "internalType": "uint256",
          "name": "energyReq",
          "type": "uint256"
        },
        {
          "indexed": false,
          "internalType": "bool",
          "name": "receiveStatus",
          "type": "bool"
        }
      ],
      "name": "BuyerCreated",
      "type": "event"
    },
    {
      "anonymous": false,
      "inputs": [
        {
          "indexed": false,
          "internalType": "uint256",
          "name": "EPV",
          "type": "uint256"
        }
      ],
      "name": "EPVcalculated",
      "type": "event"
    },
    {
      "anonymous": false,
      "inputs": [
        {
          "indexed": false,
          "internalType": "uint256",
          "name": "price",
          "type": "uint256"
        }
      ],
      "name": "PriceCalculated",
      "type": "event"
    },
    {
      "anonymous": false,
      "inputs": [
        {
          "indexed": false,
          "internalType": "string",
          "name": "smartId",
          "type": "string"
        },
        {
          "indexed": false,
          "internalType": "address payable",
          "name": "owner",
          "type": "address"
        },
        {
          "indexed": false,
          "internalType": "uint256",
          "name": "microgrid",
          "type": "uint256"
        },
        {
          "indexed": false,
          "internalType": "uint256",
          "name": "energyReq",
          "type": "uint256"
        },
        {
          "indexed": false,
          "internalType": "bool",
          "name": "receiveStatus",
          "type": "bool"
        }
      ],
      "name": "RequestCompleted",
      "type": "event"
    },
    {
      "anonymous": false,
      "inputs": [
        {
          "indexed": false,
          "internalType": "string",
          "name": "smartId",
          "type": "string"
        },
        {
          "indexed": false,
          "internalType": "address payable",
          "name": "owner",
          "type": "address"
        },
        {
          "indexed": false,
          "internalType": "uint256",
          "name": "microgrid",
          "type": "uint256"
        },
        {
          "indexed": false,
          "internalType": "uint256",
          "name": "energyAmount",
          "type": "uint256"
        },
        {
          "indexed": false,
          "internalType": "bool",
          "name": "sellStatus",
          "type": "bool"
        }
      ],
      "name": "SellerChecked",
      "type": "event"
    },
    {
      "anonymous": false,
      "inputs": [
        {
          "indexed": false,
          "internalType": "bool",
          "name": "created",
          "type": "bool"
        }
      ],
      "name": "SellerCreated",
      "type": "event"
    },
    {
      "anonymous": false,
      "inputs": [
        {
          "indexed": false,
          "internalType": "uint256",
          "name": "rm",
          "type": "uint256"
        },
        {
          "indexed": false,
          "internalType": "bool",
          "name": "done",
          "type": "bool"
        }
      ],
      "name": "SellerRemoved",
      "type": "event"
    },
    {
      "anonymous": false,
      "inputs": [
        {
          "indexed": false,
          "internalType": "uint256",
          "name": "sup",
          "type": "uint256"
        },
        {
          "indexed": false,
          "internalType": "bool",
          "name": "done",
          "type": "bool"
        }
      ],
      "name": "SellerUpdated",
      "type": "event"
    },
    {
      "anonymous": false,
      "inputs": [
        {
          "indexed": false,
          "internalType": "bool",
          "name": "allow",
          "type": "bool"
        }
      ],
      "name": "Time",
      "type": "event"
    },
    {
      "anonymous": false,
      "inputs": [
        {
          "indexed": false,
          "internalType": "uint256",
          "name": "TED",
          "type": "uint256"
        },
        {
          "indexed": false,
          "internalType": "uint256",
          "name": "TES",
          "type": "uint256"
        },
        {
          "indexed": false,
          "internalType": "uint256",
          "name": "demand",
          "type": "uint256"
        },
        {
          "indexed": false,
          "internalType": "uint256",
          "name": "supply",
          "type": "uint256"
        }
      ],
      "name": "Updated",
      "type": "event"
    },
    {
      "constant": true,
      "inputs": [],
      "name": "TED",
      "outputs": [
        {
          "internalType": "uint256",
          "name": "",
          "type": "uint256"
        }
      ],
      "payable": false,
      "stateMutability": "view",
      "type": "function"
    },
    {
      "constant": true,
      "inputs": [],
      "name": "TES",
      "outputs": [
        {
          "internalType": "uint256",
          "name": "",
          "type": "uint256"
        }
      ],
      "payable": false,
      "stateMutability": "view",
      "type": "function"
    },
    {
      "constant": true,
      "inputs": [],
      "name": "allow",
      "outputs": [
        {
          "internalType": "bool",
          "name": "",
          "type": "bool"
        }
      ],
      "payable": false,
      "stateMutability": "view",
      "type": "function"
    },
    {
      "constant": true,
      "inputs": [
        {
          "internalType": "string",
          "name": "",
          "type": "string"
        }
      ],
      "name": "buyersMap",
      "outputs": [
        {
          "internalType": "string",
          "name": "smartId",
          "type": "string"
        },
        {
          "internalType": "address payable",
          "name": "owner",
          "type": "address"
        },
        {
          "internalType": "uint256",
          "name": "microgrid",
          "type": "uint256"
        },
        {
          "internalType": "uint256",
          "name": "energyReq",
          "type": "uint256"
        },
        {
          "internalType": "bool",
          "name": "receiveStatus",
          "type": "bool"
        }
      ],
      "payable": false,
      "stateMutability": "view",
      "type": "function"
    },
    {
      "constant": true,
      "inputs": [],
      "name": "demand",
      "outputs": [
        {
          "internalType": "uint256",
          "name": "",
          "type": "uint256"
        }
      ],
      "payable": false,
      "stateMutability": "view",
      "type": "function"
    },
    {
      "constant": true,
      "inputs": [
        {
          "internalType": "uint256",
          "name": "",
          "type": "uint256"
        }
      ],
      "name": "grid1",
      "outputs": [
        {
          "internalType": "string",
          "name": "smartId",
          "type": "string"
        },
        {
          "internalType": "address payable",
          "name": "owner",
          "type": "address"
        },
        {
          "internalType": "uint256",
          "name": "microgrid",
          "type": "uint256"
        },
        {
          "internalType": "uint256",
          "name": "energyAmount",
          "type": "uint256"
        },
        {
          "internalType": "bool",
          "name": "sellStatus",
          "type": "bool"
        }
      ],
      "payable": false,
      "stateMutability": "view",
      "type": "function"
    },
    {
      "constant": true,
      "inputs": [
        {
          "internalType": "uint256",
          "name": "",
          "type": "uint256"
        }
      ],
      "name": "grid2",
      "outputs": [
        {
          "internalType": "string",
          "name": "smartId",
          "type": "string"
        },
        {
          "internalType": "address payable",
          "name": "owner",
          "type": "address"
        },
        {
          "internalType": "uint256",
          "name": "microgrid",
          "type": "uint256"
        },
        {
          "internalType": "uint256",
          "name": "energyAmount",
          "type": "uint256"
        },
        {
          "internalType": "bool",
          "name": "sellStatus",
          "type": "bool"
        }
      ],
      "payable": false,
      "stateMutability": "view",
      "type": "function"
    },
    {
      "constant": true,
      "inputs": [
        {
          "internalType": "uint256",
          "name": "",
          "type": "uint256"
        },
        {
          "internalType": "uint256",
          "name": "",
          "type": "uint256"
        }
      ],
      "name": "gridMap",
      "outputs": [
        {
          "internalType": "string",
          "name": "smartId",
          "type": "string"
        },
        {
          "internalType": "address payable",
          "name": "owner",
          "type": "address"
        },
        {
          "internalType": "uint256",
          "name": "microgrid",
          "type": "uint256"
        },
        {
          "internalType": "uint256",
          "name": "energyAmount",
          "type": "uint256"
        },
        {
          "internalType": "bool",
          "name": "sellStatus",
          "type": "bool"
        }
      ],
      "payable": false,
      "stateMutability": "view",
      "type": "function"
    },
    {
      "constant": true,
      "inputs": [],
      "name": "name",
      "outputs": [
        {
          "internalType": "string",
          "name": "",
          "type": "string"
        }
      ],
      "payable": false,
      "stateMutability": "view",
      "type": "function"
    },
    {
      "constant": true,
      "inputs": [],
      "name": "pay",
      "outputs": [
        {
          "internalType": "uint256",
          "name": "",
          "type": "uint256"
        }
      ],
      "payable": false,
      "stateMutability": "view",
      "type": "function"
    },
    {
      "constant": true,
      "inputs": [
        {
          "internalType": "uint256",
          "name": "",
          "type": "uint256"
        }
      ],
      "name": "sellersArr",
      "outputs": [
        {
          "internalType": "string",
          "name": "smartId",
          "type": "string"
        },
        {
          "internalType": "address payable",
          "name": "owner",
          "type": "address"
        },
        {
          "internalType": "uint256",
          "name": "microgrid",
          "type": "uint256"
        },
        {
          "internalType": "uint256",
          "name": "energyAmount",
          "type": "uint256"
        },
        {
          "internalType": "bool",
          "name": "sellStatus",
          "type": "bool"
        }
      ],
      "payable": false,
      "stateMutability": "view",
      "type": "function"
    },
    {
      "constant": true,
      "inputs": [
        {
          "internalType": "string",
          "name": "",
          "type": "string"
        }
      ],
      "name": "sellersMap",
      "outputs": [
        {
          "internalType": "string",
          "name": "smartId",
          "type": "string"
        },
        {
          "internalType": "address payable",
          "name": "owner",
          "type": "address"
        },
        {
          "internalType": "uint256",
          "name": "microgrid",
          "type": "uint256"
        },
        {
          "internalType": "uint256",
          "name": "energyAmount",
          "type": "uint256"
        },
        {
          "internalType": "bool",
          "name": "sellStatus",
          "type": "bool"
        }
      ],
      "payable": false,
      "stateMutability": "view",
      "type": "function"
    },
    {
      "constant": true,
      "inputs": [],
      "name": "supply",
      "outputs": [
        {
          "internalType": "uint256",
          "name": "",
          "type": "uint256"
        }
      ],
      "payable": false,
      "stateMutability": "view",
      "type": "function"
    },
    {
      "constant": false,
      "inputs": [
        {
          "internalType": "uint256",
          "name": "_time",
          "type": "uint256"
        }
      ],
      "name": "checkTime",
      "outputs": [],
      "payable": false,
      "stateMutability": "nonpayable",
      "type": "function"
    },
    {
      "constant": false,
      "inputs": [
        {
          "internalType": "string",
          "name": "_smartId",
          "type": "string"
        },
        {
          "internalType": "uint256",
          "name": "_energyDealt",
          "type": "uint256"
        }
      ],
      "name": "update",
      "outputs": [],
      "payable": false,
      "stateMutability": "nonpayable",
      "type": "function"
    },
    {
      "constant": false,
      "inputs": [
        {
          "internalType": "string",
          "name": "_smartId",
          "type": "string"
        },
        {
          "internalType": "uint256",
          "name": "_microgrid",
          "type": "uint256"
        },
        {
          "internalType": "uint256",
          "name": "_energyAmount",
          "type": "uint256"
        }
      ],
      "name": "registerSeller",
      "outputs": [],
      "payable": false,
      "stateMutability": "nonpayable",
      "type": "function"
    },
    {
      "constant": false,
      "inputs": [
        {
          "internalType": "string",
          "name": "_smartId",
          "type": "string"
        },
        {
          "internalType": "uint256",
          "name": "_microgrid",
          "type": "uint256"
        },
        {
          "internalType": "uint256",
          "name": "_energyAmount",
          "type": "uint256"
        }
      ],
      "name": "checkSeller",
      "outputs": [],
      "payable": false,
      "stateMutability": "nonpayable",
      "type": "function"
    },
    {
      "constant": false,
      "inputs": [
        {
          "internalType": "string",
          "name": "_smartId",
          "type": "string"
        },
        {
          "internalType": "uint256",
          "name": "_grid",
          "type": "uint256"
        },
        {
          "internalType": "uint256",
          "name": "_energyAmount",
          "type": "uint256"
        }
      ],
      "name": "updateArr",
      "outputs": [],
      "payable": false,
      "stateMutability": "nonpayable",
      "type": "function"
    },
    {
      "constant": false,
      "inputs": [
        {
          "internalType": "string",
          "name": "_smartId",
          "type": "string"
        },
        {
          "internalType": "uint256",
          "name": "_microgrid",
          "type": "uint256"
        },
        {
          "internalType": "uint256",
          "name": "_energyReq",
          "type": "uint256"
        }
      ],
      "name": "registerBuyer",
      "outputs": [],
      "payable": false,
      "stateMutability": "nonpayable",
      "type": "function"
    },
    {
      "constant": false,
      "inputs": [
        {
          "internalType": "string",
          "name": "_smartId",
          "type": "string"
        },
        {
          "internalType": "uint256",
          "name": "_microgrid",
          "type": "uint256"
        },
        {
          "internalType": "uint256",
          "name": "_energyReq",
          "type": "uint256"
        }
      ],
      "name": "checkBuyer",
      "outputs": [],
      "payable": false,
      "stateMutability": "nonpayable",
      "type": "function"
    },
    {
      "constant": false,
      "inputs": [
        {
          "internalType": "string",
          "name": "_smartId",
          "type": "string"
        },
        {
          "internalType": "uint256",
          "name": "_energyNeed",
          "type": "uint256"
        }
      ],
      "name": "buyRequest",
      "outputs": [],
      "payable": true,
      "stateMutability": "payable",
      "type": "function"
    },
    {
      "constant": false,
      "inputs": [],
      "name": "payment",
      "outputs": [],
      "payable": true,
      "stateMutability": "payable",
      "type": "function"
    },
    {
      "constant": false,
      "inputs": [],
      "name": "basePriceCalculation",
      "outputs": [
        {
          "internalType": "uint256",
          "name": "",
          "type": "uint256"
        }
      ],
      "payable": false,
      "stateMutability": "nonpayable",
      "type": "function"
    },
    {
      "constant": false,
      "inputs": [
        {
          "internalType": "string",
          "name": "_smartId",
          "type": "string"
        },
        {
          "internalType": "uint256",
          "name": "_x",
          "type": "uint256"
        }
      ],
      "name": "updateSeller",
      "outputs": [],
      "payable": false,
      "stateMutability": "nonpayable",
      "type": "function"
    },
    {
      "constant": false,
      "inputs": [
        {
          "internalType": "string",
          "name": "_smartId",
          "type": "string"
        },
        {
          "internalType": "uint256",
          "name": "_x",
          "type": "uint256"
        }
      ],
      "name": "removeSeller",
      "outputs": [],
      "payable": false,
      "stateMutability": "nonpayable",
      "type": "function"
    }
  ],
  "bytecode": "0x608060405260006009556000600a556000600b556000600c556000600d556000600e60006101000a81548160ff0219169083151502179055506000600e60016101000a81548173ffffffffffffffffffffffffffffffffffffffff021916908373ffffffffffffffffffffffffffffffffffffffff1602179055503480156200008757600080fd5b506040518060400160405280601781526020017f456e657267792074726164696e6720506c6174666f726d00000000000000000081525060009080519060200190620000d592919062000178565b5060056003600060018152602001908152602001600020908054620000fc929190620001ff565b506006600360006002815260200190815260200160002090805462000123929190620001ff565b50600760036000600381526020019081526020016000209080546200014a929190620001ff565b506008600360006004815260200190815260200160002090805462000171929190620001ff565b50620004af565b828054600181600116156101000203166002900490600052602060002090601f016020900481019282601f10620001bb57805160ff1916838001178555620001ec565b82800160010185558215620001ec579182015b82811115620001eb578251825591602001919060010190620001ce565b5b509050620001fb91906200032e565b5090565b8280548282559060005260206000209060050281019282156200031b5760005260206000209160050282015b828111156200031a578282600082018160000190805460018160011615610100020316600290046200025f92919062000356565b506001820160009054906101000a900473ffffffffffffffffffffffffffffffffffffffff168160010160006101000a81548173ffffffffffffffffffffffffffffffffffffffff021916908373ffffffffffffffffffffffffffffffffffffffff16021790555060028201548160020155600382015481600301556004820160009054906101000a900460ff168160040160006101000a81548160ff0219169083151502179055505050916005019190600501906200022b565b5b5090506200032a9190620003e4565b5090565b6200035391905b808211156200034f57600081600090555060010162000335565b5090565b90565b828054600181600116156101000203166002900490600052602060002090601f016020900481019282601f10620003915780548555620003d1565b82800160010185558215620003d157600052602060002091601f016020900482015b82811115620003d0578254825591600101919060010190620003b3565b5b509050620003e091906200032e565b5090565b6200046091905b808211156200045c576000808201600062000407919062000463565b6001820160006101000a81549073ffffffffffffffffffffffffffffffffffffffff0219169055600282016000905560038201600090556004820160006101000a81549060ff021916905550600501620003eb565b5090565b90565b50805460018160011615610100020316600290046000825580601f106200048b5750620004ac565b601f016020900490600052602060002090810190620004ab91906200032e565b5b50565b615dd780620004bf6000396000f3fe6080604052600436106101665760003560e01c8063809b0f99116100d1578063b6d5d7ff1161008a578063c97616e711610064578063c97616e714610ec0578063e91c02c214610f9c578063f98b91cb1461106e578063f9e826f61461114a57610166565b8063b6d5d7ff14610b4d578063b802a36714610c57578063bb8273d414610d3357610166565b8063809b0f99146107ec57806382d6bb10146108ec57806389447f83146109175780639647df97146109f35780639766aae414610a1e578063b1b3d3f614610b1e57610166565b806342f6487a1161012357806342f6487a146104ce5780634d20d8bc146104d85780634d8a6b66146105d85780634ee5c2ee1461060357806361841cd6146106d55780636ca915af1461071057610166565b8063047fc9aa1461016b57806306fdde03146101965780631b9265b814610226578063252c7cb9146102515780633dd852321461031657806341308ce014610341575b600080fd5b34801561017757600080fd5b5061018061121c565b6040518082815260200191505060405180910390f35b3480156101a257600080fd5b506101ab611222565b6040518080602001828103825283818151815260200191508051906020019080838360005b838110156101eb5780820151818401526020810190506101d0565b50505050905090810190601f1680156102185780820380516001836020036101000a031916815260200191505b509250505060405180910390f35b34801561023257600080fd5b5061023b6112c0565b6040518082815260200191505060405180910390f35b6103146004803603604081101561026757600080fd5b810190808035906020019064010000000081111561028457600080fd5b82018360208201111561029657600080fd5b803590602001918460018302840111640100000000831117156102b857600080fd5b91908080601f016020809104026020016040519081016040528093929190818152602001838380828437600081840152601f19601f820116905080830192505050505050509192919290803590602001909291905050506112c6565b005b34801561032257600080fd5b5061032b612c61565b6040518082815260200191505060405180910390f35b34801561034d57600080fd5b506104076004803603602081101561036457600080fd5b810190808035906020019064010000000081111561038157600080fd5b82018360208201111561039357600080fd5b803590602001918460018302840111640100000000831117156103b557600080fd5b91908080601f016020809104026020016040519081016040528093929190818152602001838380828437600081840152601f19601f820116905080830192505050505050509192919290505050612cee565b60405180806020018673ffffffffffffffffffffffffffffffffffffffff1673ffffffffffffffffffffffffffffffffffffffff16815260200185815260200184815260200183151515158152602001828103825287818151815260200191508051906020019080838360005b8381101561048f578082015181840152602081019050610474565b50505050905090810190601f1680156104bc5780820380516001836020036101000a031916815260200191505b50965050505050505060405180910390f35b6104d6612dff565b005b3480156104e457600080fd5b50610511600480360360208110156104fb57600080fd5b8101908080359060200190929190505050612ecf565b60405180806020018673ffffffffffffffffffffffffffffffffffffffff1673ffffffffffffffffffffffffffffffffffffffff16815260200185815260200184815260200183151515158152602001828103825287818151815260200191508051906020019080838360005b8381101561059957808201518184015260208101905061057e565b50505050905090810190601f1680156105c65780820380516001836020036101000a031916815260200191505b50965050505050505060405180910390f35b3480156105e457600080fd5b506105ed612fd7565b6040518082815260200191505060405180910390f35b34801561060f57600080fd5b506106d36004803603604081101561062657600080fd5b810190808035906020019064010000000081111561064357600080fd5b82018360208201111561065557600080fd5b8035906020019184600183028401116401000000008311171561067757600080fd5b91908080601f016020809104026020016040519081016040528093929190818152602001838380828437600081840152601f19601f82011690508083019250505050505050919291929080359060200190929190505050612fdd565b005b3480156106e157600080fd5b5061070e600480360360208110156106f857600080fd5b810190808035906020019092919050505061336c565b005b34801561071c57600080fd5b506107ea6004803603606081101561073357600080fd5b810190808035906020019064010000000081111561075057600080fd5b82018360208201111561076257600080fd5b8035906020019184600183028401116401000000008311171561078457600080fd5b91908080601f016020809104026020016040519081016040528093929190818152602001838380828437600081840152601f19601f820116905080830192505050505050509192919290803590602001909291908035906020019092919050505061341e565b005b3480156107f857600080fd5b506108256004803603602081101561080f57600080fd5b8101908080359060200190929190505050613916565b60405180806020018673ffffffffffffffffffffffffffffffffffffffff1673ffffffffffffffffffffffffffffffffffffffff16815260200185815260200184815260200183151515158152602001828103825287818151815260200191508051906020019080838360005b838110156108ad578082015181840152602081019050610892565b50505050905090810190601f1680156108da5780820380516001836020036101000a031916815260200191505b50965050505050505060405180910390f35b3480156108f857600080fd5b50610901613a1e565b6040518082815260200191505060405180910390f35b34801561092357600080fd5b506109f16004803603606081101561093a57600080fd5b810190808035906020019064010000000081111561095757600080fd5b82018360208201111561096957600080fd5b8035906020019184600183028401116401000000008311171561098b57600080fd5b91908080601f016020809104026020016040519081016040528093929190818152602001838380828437600081840152601f19601f8201169050808301925050505050505091929192908035906020019092919080359060200190929190505050613a24565b005b3480156109ff57600080fd5b50610a08613f5d565b6040518082815260200191505060405180910390f35b348015610a2a57600080fd5b50610a5760048036036020811015610a4157600080fd5b8101908080359060200190929190505050613f63565b60405180806020018673ffffffffffffffffffffffffffffffffffffffff1673ffffffffffffffffffffffffffffffffffffffff16815260200185815260200184815260200183151515158152602001828103825287818151815260200191508051906020019080838360005b83811015610adf578082015181840152602081019050610ac4565b50505050905090810190601f168015610b0c5780820380516001836020036101000a031916815260200191505b50965050505050505060405180910390f35b348015610b2a57600080fd5b50610b3361406b565b604051808215151515815260200191505060405180910390f35b348015610b5957600080fd5b50610b9060048036036040811015610b7057600080fd5b81019080803590602001909291908035906020019092919050505061407e565b60405180806020018673ffffffffffffffffffffffffffffffffffffffff1673ffffffffffffffffffffffffffffffffffffffff16815260200185815260200184815260200183151515158152602001828103825287818151815260200191508051906020019080838360005b83811015610c18578082015181840152602081019050610bfd565b50505050905090810190601f168015610c455780820380516001836020036101000a031916815260200191505b50965050505050505060405180910390f35b348015610c6357600080fd5b50610d3160048036036060811015610c7a57600080fd5b8101908080359060200190640100000000811115610c9757600080fd5b820183602082011115610ca957600080fd5b80359060200191846001830284011164010000000083111715610ccb57600080fd5b91908080601f016020809104026020016040519081016040528093929190818152602001838380828437600081840152601f19601f8201169050808301925050505050505091929192908035906020019092919080359060200190929190505050614193565b005b348015610d3f57600080fd5b50610df960048036036020811015610d5657600080fd5b8101908080359060200190640100000000811115610d7357600080fd5b820183602082011115610d8557600080fd5b80359060200191846001830284011164010000000083111715610da757600080fd5b91908080601f016020809104026020016040519081016040528093929190818152602001838380828437600081840152601f19601f820116905080830192505050505050509192919290505050614917565b60405180806020018673ffffffffffffffffffffffffffffffffffffffff1673ffffffffffffffffffffffffffffffffffffffff16815260200185815260200184815260200183151515158152602001828103825287818151815260200191508051906020019080838360005b83811015610e81578082015181840152602081019050610e66565b50505050905090810190601f168015610eae5780820380516001836020036101000a031916815260200191505b50965050505050505060405180910390f35b348015610ecc57600080fd5b50610f9a60048036036060811015610ee357600080fd5b8101908080359060200190640100000000811115610f0057600080fd5b820183602082011115610f1257600080fd5b80359060200191846001830284011164010000000083111715610f3457600080fd5b91908080601f016020809104026020016040519081016040528093929190818152602001838380828437600081840152601f19601f8201169050808301925050505050505091929192908035906020019092919080359060200190929190505050614a28565b005b348015610fa857600080fd5b5061106c60048036036040811015610fbf57600080fd5b8101908080359060200190640100000000811115610fdc57600080fd5b820183602082011115610fee57600080fd5b8035906020019184600183028401116401000000008311171561101057600080fd5b91908080601f016020809104026020016040519081016040528093929190818152602001838380828437600081840152601f19601f82011690508083019250505050505050919291929080359060200190929190505050614bf5565b005b34801561107a57600080fd5b506111486004803603606081101561109157600080fd5b81019080803590602001906401000000008111156110ae57600080fd5b8201836020820111156110c057600080fd5b803590602001918460018302840111640100000000831117156110e257600080fd5b91908080601f016020809104026020016040519081016040528093929190818152602001838380828437600081840152601f19601f8201169050808301925050505050505091929192908035906020019092919080359060200190929190505050615414565b005b34801561115657600080fd5b5061121a6004803603604081101561116d57600080fd5b810190808035906020019064010000000081111561118a57600080fd5b82018360208201111561119c57600080fd5b803590602001918460018302840111640100000000831117156111be57600080fd5b91908080601f016020809104026020016040519081016040528093929190818152602001838380828437600081840152601f19601f820116905080830192505050505050509192919290803590602001909291905050506155ee565b005b600c5481565b60008054600181600116156101000203166002900480601f0160208091040260200160405190810160405280929190818152602001828054600181600116156101000203166002900480156112b85780601f1061128d576101008083540402835291602001916112b8565b820191906000526020600020905b81548152906001019060200180831161129b57829003601f168201915b505050505081565b600d5481565b60001515600e60009054906101000a900460ff161515146112e657600080fd5b6002826040518082805190602001908083835b6020831061131c57805182526020820191506020810190506020830392506112f9565b6001836020036101000a038019825116818451168082178552505050505050905001915050908152602001604051809103902060010160009054906101000a900473ffffffffffffffffffffffffffffffffffffffff1673ffffffffffffffffffffffffffffffffffffffff163373ffffffffffffffffffffffffffffffffffffffff16146113aa57600080fd5b6113b2615be7565b6002836040518082805190602001908083835b602083106113e857805182526020820191506020810190506020830392506113c5565b6001836020036101000a03801982511681845116808217855250505050505090500191505090815260200160405180910390206040518060a0016040529081600082018054600181600116156101000203166002900480601f0160208091040260200160405190810160405280929190818152602001828054600181600116156101000203166002900480156114bf5780601f10611494576101008083540402835291602001916114bf565b820191906000526020600020905b8154815290600101906020018083116114a257829003601f168201915b505050505081526020016001820160009054906101000a900473ffffffffffffffffffffffffffffffffffffffff1673ffffffffffffffffffffffffffffffffffffffff1673ffffffffffffffffffffffffffffffffffffffff16815260200160028201548152602001600382015481526020016004820160009054906101000a900460ff1615151515815250509050600080905060008090506000809050600080905061156b612c61565b925060008090505b600360008760400151815260200190815260200160002080549050811015611fb257600015158215151415611fa55786600360008860400151815260200190815260200160002082815481106115c557fe5b90600052602060002090600502016003015410611b7657600115156003600088604001518152602001908152602001600020828154811061160257fe5b906000526020600020906005020160040160009054906101000a900460ff1615151415611b70576509fa26f40400848802029450866003600088604001518152602001908152602001600020828154811061165957fe5b90600052602060002090600502016003016000828254039250508190555060006003600088604001518152602001908152602001600020828154811061169b57fe5b9060005260206000209060050201600301541415611945576000600360008860400151815260200190815260200160002082815481106116d757fe5b906000526020600020906005020160040160006101000a81548160ff021916908315150217905550600060016003600089604001518152602001908152602001600020838154811061172557fe5b906000526020600020906005020160000160405180828054600181600116156101000203166002900480156117915780601f1061176f576101008083540402835291820191611791565b820191906000526020600020905b81548152906001019060200180831161177d575b5050915050908152602001604051809103902060040160006101000a81548160ff02191690831515021790555060006001600360008960400151815260200190815260200160002083815481106117e457fe5b906000526020600020906005020160000160405180828054600181600116156101000203166002900480156118505780601f1061182e576101008083540402835291820191611850565b820191906000526020600020905b81548152906001019060200180831161183c575b50509150509081526020016040518091039020600301819055506119406003600088604001518152602001908152602001600020828154811061188f57fe5b90600052602060002090600502016000018054600181600116156101000203166002900480601f0160208091040260200160405190810160405280929190818152602001828054600181600116156101000203166002900480156119345780601f1061190957610100808354040283529160200191611934565b820191906000526020600020905b81548152906001019060200180831161191757829003601f168201915b50505050506001614bf5565b611ad0565b8660016003600089604001518152602001908152602001600020838154811061196a57fe5b906000526020600020906005020160000160405180828054600181600116156101000203166002900480156119d65780601f106119b45761010080835404028352918201916119d6565b820191906000526020600020905b8154815290600101906020018083116119c2575b5050915050908152602001604051809103902060030160008282540392505081905550611acf60036000886040015181526020019081526020016000208281548110611a1e57fe5b90600052602060002090600502016000018054600181600116156101000203166002900480601f016020809104026020016040519081016040528092919081815260200182805460018160011615610100020316600290048015611ac35780601f10611a9857610100808354040283529160200191611ac3565b820191906000526020600020905b815481529060010190602001808311611aa657829003601f168201915b505050505060016155ee565b5b86925060036000876040015181526020019081526020016000208181548110611af557fe5b906000526020600020906005020160010160009054906101000a900473ffffffffffffffffffffffffffffffffffffffff16600e60016101000a81548173ffffffffffffffffffffffffffffffffffffffff021916908373ffffffffffffffffffffffffffffffffffffffff16021790555060019150611b71565b5b611fa4565b6001151560036000886040015181526020019081526020016000208281548110611b9c57fe5b906000526020600020906005020160040160009054906101000a900460ff1615151415611f9e576509fa26f404008460036000896040015181526020019081526020016000208381548110611bed57fe5b9060005260206000209060050201600301540202945060036000876040015181526020019081526020016000208181548110611c2557fe5b90600052602060002090600502016003015487039250600060036000886040015181526020019081526020016000208281548110611c5f57fe5b906000526020600020906005020160030181905550600060036000886040015181526020019081526020016000208281548110611c9857fe5b906000526020600020906005020160040160006101000a81548160ff0219169083151502179055506000600160036000896040015181526020019081526020016000208381548110611ce657fe5b90600052602060002090600502016000016040518082805460018160011615610100020316600290048015611d525780601f10611d30576101008083540402835291820191611d52565b820191906000526020600020905b815481529060010190602001808311611d3e575b5050915050908152602001604051809103902060040160006101000a81548160ff0219169083151502179055506000600160036000896040015181526020019081526020016000208381548110611da557fe5b90600052602060002090600502016000016040518082805460018160011615610100020316600290048015611e115780601f10611def576101008083540402835291820191611e11565b820191906000526020600020905b815481529060010190602001808311611dfd575b5050915050908152602001604051809103902060030181905550611f0160036000886040015181526020019081526020016000208281548110611e5057fe5b90600052602060002090600502016000018054600181600116156101000203166002900480601f016020809104026020016040519081016040528092919081815260200182805460018160011615610100020316600290048015611ef55780601f10611eca57610100808354040283529160200191611ef5565b820191906000526020600020905b815481529060010190602001808311611ed857829003601f168201915b505050505060016155ee565b6001915060036000876040015181526020019081526020016000208181548110611f2757fe5b906000526020600020906005020160010160009054906101000a900473ffffffffffffffffffffffffffffffffffffffff16600e60016101000a81548173ffffffffffffffffffffffffffffffffffffffff021916908373ffffffffffffffffffffffffffffffffffffffff160217905550611fa3565b600091505b5b5b8080600101915050611573565b5060008090505b60048054905081116128725760001515821515141561286557856040015160048281548110611fe457fe5b9060005260206000209060050201600201541461286457866004828154811061200957fe5b906000526020600020906005020160030154106124ef57600115156004828154811061203157fe5b906000526020600020906005020160040160009054906101000a900460ff16151514156124e5576509fa26f40400848860020202029450866004828154811061207657fe5b9060005260206000209060050201600301600082825403925050819055506000600482815481106120a357fe5b90600052602060002090600502016003015414156122f9576000600482815481106120ca57fe5b906000526020600020906005020160040160006101000a81548160ff021916908315150217905550600060016004838154811061210357fe5b9060005260206000209060050201600001604051808280546001816001161561010002031660029004801561216f5780601f1061214d57610100808354040283529182019161216f565b820191906000526020600020905b81548152906001019060200180831161215b575b5050915050908152602001604051809103902060040160006101000a81548160ff02191690831515021790555060006001600483815481106121ad57fe5b906000526020600020906005020160000160405180828054600181600116156101000203166002900480156122195780601f106121f7576101008083540402835291820191612219565b820191906000526020600020905b815481529060010190602001808311612205575b50509150509081526020016040518091039020600301819055506122f46004828154811061224357fe5b90600052602060002090600502016000018054600181600116156101000203166002900480601f0160208091040260200160405190810160405280929190818152602001828054600181600116156101000203166002900480156122e85780601f106122bd576101008083540402835291602001916122e8565b820191906000526020600020905b8154815290600101906020018083116122cb57829003601f168201915b50505050506002614bf5565b61245a565b8660016004838154811061230957fe5b906000526020600020906005020160000160405180828054600181600116156101000203166002900480156123755780601f10612353576101008083540402835291820191612375565b820191906000526020600020905b815481529060010190602001808311612361575b5050915050908152602001604051809103902060030160008282540392505081905550612459600482815481106123a857fe5b90600052602060002090600502016000018054600181600116156101000203166002900480601f01602080910402602001604051908101604052809291908181526020018280546001816001161561010002031660029004801561244d5780601f106124225761010080835404028352916020019161244d565b820191906000526020600020905b81548152906001019060200180831161243057829003601f168201915b505050505060026155ee565b5b8692506004818154811061246a57fe5b906000526020600020906005020160010160009054906101000a900473ffffffffffffffffffffffffffffffffffffffff16600e60016101000a81548173ffffffffffffffffffffffffffffffffffffffff021916908373ffffffffffffffffffffffffffffffffffffffff160217905550600191506124ea565b600091505b612863565b600115156004828154811061250057fe5b906000526020600020906005020160040160009054906101000a900460ff161515141561285d576509fa26f40400846004838154811061253c57fe5b906000526020600020906005020160030154600202020294506004818154811061256257fe5b9060005260206000209060050201600301548703925060006004828154811061258757fe5b9060005260206000209060050201600301819055506000600482815481106125ab57fe5b906000526020600020906005020160040160006101000a81548160ff02191690831515021790555060006001600483815481106125e457fe5b906000526020600020906005020160000160405180828054600181600116156101000203166002900480156126505780601f1061262e576101008083540402835291820191612650565b820191906000526020600020905b81548152906001019060200180831161263c575b5050915050908152602001604051809103902060040160006101000a81548160ff021916908315150217905550600060016004838154811061268e57fe5b906000526020600020906005020160000160405180828054600181600116156101000203166002900480156126fa5780601f106126d85761010080835404028352918201916126fa565b820191906000526020600020905b8154815290600101906020018083116126e6575b50509150509081526020016040518091039020600301819055506127d56004828154811061272457fe5b90600052602060002090600502016000018054600181600116156101000203166002900480601f0160208091040260200160405190810160405280929190818152602001828054600181600116156101000203166002900480156127c95780601f1061279e576101008083540402835291602001916127c9565b820191906000526020600020905b8154815290600101906020018083116127ac57829003601f168201915b505050505060026155ee565b600481815481106127e257fe5b906000526020600020906005020160010160009054906101000a900473ffffffffffffffffffffffffffffffffffffffff16600e60016101000a81548173ffffffffffffffffffffffffffffffffffffffff021916908373ffffffffffffffffffffffffffffffffffffffff16021790555060019150612862565b600091505b5b5b5b8080600101915050611fb9565b50816002886040518082805190602001908083835b602083106128aa5780518252602082019150602081019050602083039250612887565b6001836020036101000a038019825116818451168082178552505050505050905001915050908152602001604051809103902060030154036002886040518082805190602001908083835b6020831061291857805182526020820191506020810190506020830392506128f5565b6001836020036101000a03801982511681845116808217855250505050505090500191505090815260200160405180910390206003018190555060006002886040518082805190602001908083835b6020831061298a5780518252602082019150602081019050602083039250612967565b6001836020036101000a03801982511681845116808217855250505050505090500191505090815260200160405180910390206003015414612a53576000600286600001516040518082805190602001908083835b60208310612a0257805182526020820191506020810190506020830392506129df565b6001836020036101000a038019825116818451168082178552505050505050905001915050908152602001604051809103902060040160006101000a81548160ff0219169083151502179055612ad8565b60016002886040518082805190602001908083835b60208310612a8b5780518252602082019150602081019050602083039250612a68565b6001836020036101000a038019825116818451168082178552505050505050905001915050908152602001604051809103902060040160006101000a81548160ff02191690831515021790555b50612ae38783612fdd565b83600d819055507f6b2e0de152c775ca7ba971dedfd8f9ede5e85bbfd2d023a3a0b49e1fc548fd7c87338760400151600060028a600001516040518082805190602001908083835b60208310612b4e5780518252602082019150602081019050602083039250612b2b565b6001836020036101000a038019825116818451168082178552505050505050905001915050908152602001604051809103902060040160009054906101000a900460ff1660405180806020018673ffffffffffffffffffffffffffffffffffffffff1673ffffffffffffffffffffffffffffffffffffffff16815260200185815260200184815260200183151515158152602001828103825287818151815260200191508051906020019080838360005b83811015612c1a578082015181840152602081019050612bff565b50505050905090810190601f168015612c475780820380516001836020036101000a031916815260200191505b50965050505050505060405180910390a150505050505050565b600080600090506000809050600060069050600954600a5481612c8057fe5b04925060018310612caa57828181612c9457fe5b0491506000821415612ca557600191505b612cae565b8091505b7f1eb334ee2a0c83751ac599a058b8a63be2104fa534e79d2147dc28945575c285826040518082815260200191505060405180910390a181935050505090565b600281805160208101820180518482526020830160208501208183528095505050505050600091509050806000018054600181600116156101000203166002900480601f016020809104026020016040519081016040528092919081815260200182805460018160011615610100020316600290048015612db05780601f10612d8557610100808354040283529160200191612db0565b820191906000526020600020905b815481529060010190602001808311612d9357829003601f168201915b5050505050908060010160009054906101000a900473ffffffffffffffffffffffffffffffffffffffff16908060020154908060030154908060040160009054906101000a900460ff16905085565b6000600e60019054906101000a900473ffffffffffffffffffffffffffffffffffffffff169050600073ffffffffffffffffffffffffffffffffffffffff16600e60019054906101000a900473ffffffffffffffffffffffffffffffffffffffff1673ffffffffffffffffffffffffffffffffffffffff1614612ec4578073ffffffffffffffffffffffffffffffffffffffff166108fc349081150290604051600060405180830381858888f19350505050158015612ec2573d6000803e3d6000fd5b505b6000600d8190555050565b60068181548110612edc57fe5b9060005260206000209060050201600091509050806000018054600181600116156101000203166002900480601f016020809104026020016040519081016040528092919081815260200182805460018160011615610100020316600290048015612f885780601f10612f5d57610100808354040283529160200191612f88565b820191906000526020600020905b815481529060010190602001808311612f6b57829003601f168201915b5050505050908060010160009054906101000a900473ffffffffffffffffffffffffffffffffffffffff16908060020154908060030154908060040160009054906101000a900460ff16905085565b600b5481565b60011515600e60009054906101000a900460ff16151514156132de576001826040518082805190602001908083835b6020831061302f578051825260208201915060208101905060208303925061300c565b6001836020036101000a038019825116818451168082178552505050505050905001915050908152602001604051809103902060010160009054906101000a900473ffffffffffffffffffffffffffffffffffffffff1673ffffffffffffffffffffffffffffffffffffffff163373ffffffffffffffffffffffffffffffffffffffff1614156131cd576000600c54141561313f576001826040518082805190602001908083835b602083106130fa57805182526020820191506020810190506020830392506130d7565b6001836020036101000a038019825116818451168082178552505050505050905001915050908152602001604051809103902060030154600a5401600a8190556131ba565b6001826040518082805190602001908083835b602083106131755780518252602082019150602081019050602083039250613152565b6001836020036101000a038019825116818451168082178552505050505050905001915050908152602001604051809103902060030154600c54600a540101600a8190555b50600a54600c5401600c819055506132dd565b6000600b541415613253576002826040518082805190602001908083835b6020831061320e57805182526020820191506020810190506020830392506131eb565b6001836020036101000a0380198251168184511680821785525050505050509050019150509081526020016040518091039020600301546009540160098190556132ce565b6002826040518082805190602001908083835b602083106132895780518252602082019150602081019050602083039250613266565b6001836020036101000a038019825116818451168082178552505050505050905001915050908152602001604051809103902060030154600b54600954010160098190555b50600954600b5401600b819055505b5b60001515600e60009054906101000a900460ff16151514156133115780600b5403600b8190555080600c5403600c819055505b7fe75d396a479695bf8384579b621262055952455623ff38da02affb3a52455d8d600954600a54600b54600c546040518085815260200184815260200183815260200182815260200194505050505060405180910390a15050565b6000603c828161337857fe5b06101580156133925750600f603c828161338e57fe5b0611155b6133b5576000600e60006101000a81548160ff02191690831515021790556133d0565b6001600e60006101000a81548160ff02191690831515021790555b507f2ce48d574716b9da341ca90f76959cf855a00a2dba4b7afcf851c3b74779ac92600e60009054906101000a900460ff16604051808215151515815260200191505060405180910390a150565b6002836040518082805190602001908083835b602083106134545780518252602082019150602081019050602083039250613431565b6001836020036101000a038019825116818451168082178552505050505050905001915050908152602001604051809103902060010160009054906101000a900473ffffffffffffffffffffffffffffffffffffffff1673ffffffffffffffffffffffffffffffffffffffff163373ffffffffffffffffffffffffffffffffffffffff1614156136df57600115156002846040518082805190602001908083835b6020831061351857805182526020820191506020810190506020830392506134f5565b6001836020036101000a038019825116818451168082178552505050505050905001915050908152602001604051809103902060040160009054906101000a900460ff161515141561365f5760006002846040518082805190602001908083835b6020831061359c5780518252602082019150602081019050602083039250613579565b6001836020036101000a038019825116818451168082178552505050505050905001915050908152602001604051809103902060040160006101000a81548160ff021916908315150217905550806002846040518082805190602001908083835b6020831061362057805182526020820191506020810190506020830392506135fd565b6001836020036101000a0380198251168184511680821785525050505050509050019150509081526020016040518091039020600301819055506136da565b806002846040518082805190602001908083835b602083106136965780518252602082019150602081019050602083039250613673565b6001836020036101000a0380198251168184511680821785525050505050509050019150509081526020016040518091039020600301600082825401925050819055505b613824565b6040518060a001604052808481526020013373ffffffffffffffffffffffffffffffffffffffff168152602001838152602001828152602001600015158152506002846040518082805190602001908083835b602083106137555780518252602082019150602081019050602083039250613732565b6001836020036101000a038019825116818451168082178552505050505050905001915050908152602001604051809103902060008201518160000190805190602001906137a4929190615c2e565b5060208201518160010160006101000a81548173ffffffffffffffffffffffffffffffffffffffff021916908373ffffffffffffffffffffffffffffffffffffffff160217905550604082015181600201556060820151816003015560808201518160040160006101000a81548160ff0219169083151502179055509050505b7f667aa1a64463572f80cfc0a916c17f3775c3f6a1412919fb4210771bb0f4b84d83338484600060405180806020018673ffffffffffffffffffffffffffffffffffffffff1673ffffffffffffffffffffffffffffffffffffffff16815260200185815260200184815260200183151515158152602001828103825287818151815260200191508051906020019080838360005b838110156138d35780820151818401526020810190506138b8565b50505050905090810190601f1680156139005780820380516001836020036101000a031916815260200191505b50965050505050505060405180910390a1505050565b6005818154811061392357fe5b9060005260206000209060050201600091509050806000018054600181600116156101000203166002900480601f0160208091040260200160405190810160405280929190818152602001828054600181600116156101000203166002900480156139cf5780601f106139a4576101008083540402835291602001916139cf565b820191906000526020600020905b8154815290600101906020018083116139b257829003601f168201915b5050505050908060010160009054906101000a900473ffffffffffffffffffffffffffffffffffffffff16908060020154908060030154908060040160009054906101000a900460ff16905085565b60095481565b606060008090505b600480549050811015613c865760048181548110613a4657fe5b90600052602060002090600502016000018054600181600116156101000203166002900480601f016020809104026020016040519081016040528092919081815260200182805460018160011615610100020316600290048015613aeb5780601f10613ac057610100808354040283529160200191613aeb565b820191906000526020600020905b815481529060010190602001808311613ace57829003601f168201915b50505050509150846040516020018082805190602001908083835b60208310613b295780518252602082019150602081019050602083039250613b06565b6001836020036101000a03801982511681845116808217855250505050505090500191505060405160208183030381529060405280519060200120826040516020018082805190602001908083835b60208310613b9b5780518252602082019150602081019050602083039250613b78565b6001836020036101000a038019825116818451168082178552505050505050905001915050604051602081830303815290604052805190602001201415613c79578260048281548110613bea57fe5b9060005260206000209060050201600301600082825401925050819055506000151560048281548110613c1957fe5b906000526020600020906005020160040160009054906101000a900460ff1615151415613c7857600160048281548110613c4f57fe5b906000526020600020906005020160040160006101000a81548160ff0219169083151502179055505b5b8080600101915050613a2c565b5060008090505b6003600085815260200190815260200160002080549050811015613f1a57600360008581526020019081526020016000208181548110613cc957fe5b90600052602060002090600502016000018054600181600116156101000203166002900480601f016020809104026020016040519081016040528092919081815260200182805460018160011615610100020316600290048015613d6e5780601f10613d4357610100808354040283529160200191613d6e565b820191906000526020600020905b815481529060010190602001808311613d5157829003601f168201915b50505050509150846040516020018082805190602001908083835b60208310613dac5780518252602082019150602081019050602083039250613d89565b6001836020036101000a03801982511681845116808217855250505050505090500191505060405160208183030381529060405280519060200120826040516020018082805190602001908083835b60208310613e1e5780518252602082019150602081019050602083039250613dfb565b6001836020036101000a038019825116818451168082178552505050505050905001915050604051602081830303815290604052805190602001201415613f0d5782600360008681526020019081526020016000208281548110613e7e57fe5b9060005260206000209060050201600301600082825401925050819055506000151560048281548110613ead57fe5b906000526020600020906005020160040160009054906101000a900460ff1615151415613f0c57600160048281548110613ee357fe5b906000526020600020906005020160040160006101000a81548160ff0219169083151502179055505b5b8080600101915050613c8d565b507ffec26bbce9debb47f4dbda0d9aff7735293ab9900b60f03b291dd6804f6a39c96001604051808215151515815260200191505060405180910390a150505050565b600a5481565b60048181548110613f7057fe5b9060005260206000209060050201600091509050806000018054600181600116156101000203166002900480601f01602080910402602001604051908101604052809291908181526020018280546001816001161561010002031660029004801561401c5780601f10613ff15761010080835404028352916020019161401c565b820191906000526020600020905b815481529060010190602001808311613fff57829003601f168201915b5050505050908060010160009054906101000a900473ffffffffffffffffffffffffffffffffffffffff16908060020154908060030154908060040160009054906101000a900460ff16905085565b600e60009054906101000a900460ff1681565b6003602052816000526040600020818154811061409757fe5b906000526020600020906005020160009150915050806000018054600181600116156101000203166002900480601f0160208091040260200160405190810160405280929190818152602001828054600181600116156101000203166002900480156141445780601f1061411957610100808354040283529160200191614144565b820191906000526020600020905b81548152906001019060200180831161412757829003601f168201915b5050505050908060010160009054906101000a900473ffffffffffffffffffffffffffffffffffffffff16908060020154908060030154908060040160009054906101000a900460ff16905085565b6001836040518082805190602001908083835b602083106141c957805182526020820191506020810190506020830392506141a6565b6001836020036101000a038019825116818451168082178552505050505050905001915050908152602001604051809103902060010160009054906101000a900473ffffffffffffffffffffffffffffffffffffffff1673ffffffffffffffffffffffffffffffffffffffff163373ffffffffffffffffffffffffffffffffffffffff16141561445e57600015156001846040518082805190602001908083835b6020831061428d578051825260208201915060208101905060208303925061426a565b6001836020036101000a038019825116818451168082178552505050505050905001915050908152602001604051809103902060040160009054906101000a900460ff16151514156143d357600180846040518082805190602001908083835b6020831061431057805182526020820191506020810190506020830392506142ed565b6001836020036101000a038019825116818451168082178552505050505050905001915050908152602001604051809103902060040160006101000a81548160ff021916908315150217905550806001846040518082805190602001908083835b602083106143945780518252602082019150602081019050602083039250614371565b6001836020036101000a03801982511681845116808217855250505050505090500191505090815260200160405180910390206003018190555061444e565b806001846040518082805190602001908083835b6020831061440a57805182526020820191506020810190506020830392506143e7565b6001836020036101000a0380198251168184511680821785525050505050509050019150509081526020016040518091039020600301600082825401925050819055505b614459838383613a24565b614825565b6040518060a001604052808481526020013373ffffffffffffffffffffffffffffffffffffffff168152602001838152602001828152602001600115158152506001846040518082805190602001908083835b602083106144d457805182526020820191506020810190506020830392506144b1565b6001836020036101000a03801982511681845116808217855250505050505090500191505090815260200160405180910390206000820151816000019080519060200190614523929190615c2e565b5060208201518160010160006101000a81548173ffffffffffffffffffffffffffffffffffffffff021916908373ffffffffffffffffffffffffffffffffffffffff160217905550604082015181600201556060820151816003015560808201518160040160006101000a81548160ff02191690831515021790555090505060046040518060a001604052808581526020013373ffffffffffffffffffffffffffffffffffffffff1681526020018481526020018381526020016001151581525090806001815401808255809150509060018203906000526020600020906005020160009091929091909150600082015181600001908051906020019061462b929190615c2e565b5060208201518160010160006101000a81548173ffffffffffffffffffffffffffffffffffffffff021916908373ffffffffffffffffffffffffffffffffffffffff160217905550604082015181600201556060820151816003015560808201518160040160006101000a81548160ff021916908315150217905550505050600360008381526020019081526020016000206001846040518082805190602001908083835b602083106146f357805182526020820191506020810190506020830392506146d0565b6001836020036101000a03801982511681845116808217855250505050505090500191505090815260200160405180910390209080600181540180825580915050906001820390600052602060002090600502016000909192909190915060008201816000019080546001816001161561010002031660029004614778929190615cae565b506001820160009054906101000a900473ffffffffffffffffffffffffffffffffffffffff168160010160006101000a81548173ffffffffffffffffffffffffffffffffffffffff021916908373ffffffffffffffffffffffffffffffffffffffff16021790555060028201548160020155600382015481600301556004820160009054906101000a900460ff168160040160006101000a81548160ff0219169083151502179055505050505b7ffc109caf254c9db039b010ed5ceb9d246c7e150921f9277fc5a6cdbe89aa33f483338484600160405180806020018673ffffffffffffffffffffffffffffffffffffffff1673ffffffffffffffffffffffffffffffffffffffff16815260200185815260200184815260200183151515158152602001828103825287818151815260200191508051906020019080838360005b838110156148d45780820151818401526020810190506148b9565b50505050905090810190601f1680156149015780820380516001836020036101000a031916815260200191505b50965050505050505060405180910390a1505050565b600181805160208101820180518482526020830160208501208183528095505050505050600091509050806000018054600181600116156101000203166002900480601f0160208091040260200160405190810160405280929190818152602001828054600181600116156101000203166002900480156149d95780601f106149ae576101008083540402835291602001916149d9565b820191906000526020600020905b8154815290600101906020018083116149bc57829003601f168201915b5050505050908060010160009054906101000a900473ffffffffffffffffffffffffffffffffffffffff16908060020154908060030154908060040160009054906101000a900460ff16905085565b60011515600e60009054906101000a900460ff16151514614a4857600080fd5b6009835110158015614a5c5750600c835111155b614a6557600080fd5b600082118015614a76575060048211155b614a7f57600080fd5b6001836040518082805190602001908083835b60208310614ab55780518252602082019150602081019050602083039250614a92565b6001836020036101000a038019825116818451168082178552505050505050905001915050908152602001604051809103902060010160009054906101000a900473ffffffffffffffffffffffffffffffffffffffff1673ffffffffffffffffffffffffffffffffffffffff163373ffffffffffffffffffffffffffffffffffffffff161415614bd957600015156001846040518082805190602001908083835b60208310614b795780518252602082019150602081019050602083039250614b56565b6001836020036101000a038019825116818451168082178552505050505050905001915050908152602001604051809103902060040160009054906101000a900460ff16151514614bc957600080fd5b614bd483838361341e565b614be5565b614be483838361341e565b5b614bf0836000612fdd565b505050565b60006001836040518082805190602001908083835b60208310614c2d5780518252602082019150602081019050602083039250614c0a565b6001836020036101000a0380198251168184511680821785525050505050509050019150509081526020016040518091039020600201549050606060018314156150085760008090505b600480549050811015614f415760048181548110614c9157fe5b90600052602060002090600502016000018054600181600116156101000203166002900480601f016020809104026020016040519081016040528092919081815260200182805460018160011615610100020316600290048015614d365780601f10614d0b57610100808354040283529160200191614d36565b820191906000526020600020905b815481529060010190602001808311614d1957829003601f168201915b50505050509150846040516020018082805190602001908083835b60208310614d745780518252602082019150602081019050602083039250614d51565b6001836020036101000a03801982511681845116808217855250505050505090500191505060405160208183030381529060405280519060200120826040516020018082805190602001908083835b60208310614de65780518252602082019150602081019050602083039250614dc3565b6001836020036101000a038019825116818451168082178552505050505050905001915050604051602081830303815290604052805190602001201415614f345760046001820181548110614e3757fe5b906000526020600020906005020160048281548110614e5257fe5b906000526020600020906005020160008201816000019080546001816001161561010002031660029004614e87929190615cae565b506001820160009054906101000a900473ffffffffffffffffffffffffffffffffffffffff168160010160006101000a81548173ffffffffffffffffffffffffffffffffffffffff021916908373ffffffffffffffffffffffffffffffffffffffff16021790555060028201548160020155600382015481600301556004820160009054906101000a900460ff168160040160006101000a81548160ff0219169083151502179055509050505b8080600101915050614c77565b50600460016004805490500381548110614f5757fe5b906000526020600020906005020160008082016000614f769190615d35565b6001820160006101000a81549073ffffffffffffffffffffffffffffffffffffffff0219169055600282016000905560038201600090556004820160006101000a81549060ff021916905550507f3cb78a277d950abe89d675a51f6dea3d1b8dc635be1cfe3ca2027367f6ad2b6283600160405180838152602001821515151581526020019250505060405180910390a15b600283141561540e5760008090505b60036000848152602001908152602001600020805490508110156153255760036000848152602001908152602001600020818154811061505357fe5b90600052602060002090600502016000018054600181600116156101000203166002900480601f0160208091040260200160405190810160405280929190818152602001828054600181600116156101000203166002900480156150f85780601f106150cd576101008083540402835291602001916150f8565b820191906000526020600020905b8154815290600101906020018083116150db57829003601f168201915b50505050509150846040516020018082805190602001908083835b602083106151365780518252602082019150602081019050602083039250615113565b6001836020036101000a03801982511681845116808217855250505050505090500191505060405160208183030381529060405280519060200120826040516020018082805190602001908083835b602083106151a85780518252602082019150602081019050602083039250615185565b6001836020036101000a0380198251168184511680821785525050505050509050019150506040516020818303038152906040528051906020012014156153185760036000848152602001908152602001600020600182018154811061520a57fe5b906000526020600020906005020160036000858152602001908152602001600020828154811061523657fe5b90600052602060002090600502016000820181600001908054600181600116156101000203166002900461526b929190615cae565b506001820160009054906101000a900473ffffffffffffffffffffffffffffffffffffffff168160010160006101000a81548173ffffffffffffffffffffffffffffffffffffffff021916908373ffffffffffffffffffffffffffffffffffffffff16021790555060028201548160020155600382015481600301556004820160009054906101000a900460ff168160040160006101000a81548160ff0219169083151502179055509050505b8080600101915050615017565b506003600083815260200190815260200160002060016003600085815260200190815260200160002080549050038154811061535d57fe5b90600052602060002090600502016000808201600061537c9190615d35565b6001820160006101000a81549073ffffffffffffffffffffffffffffffffffffffff0219169055600282016000905560038201600090556004820160006101000a81549060ff021916905550507f3cb78a277d950abe89d675a51f6dea3d1b8dc635be1cfe3ca2027367f6ad2b6283600160405180838152602001821515151581526020019250505060405180910390a15b50505050565b60011515600e60009054906101000a900460ff1615151461543457600080fd5b60098351101580156154485750600c835111155b61545157600080fd5b600082118015615462575060048211155b61546b57600080fd5b6000811161547857600080fd5b6002836040518082805190602001908083835b602083106154ae578051825260208201915060208101905060208303925061548b565b6001836020036101000a038019825116818451168082178552505050505050905001915050908152602001604051809103902060010160009054906101000a900473ffffffffffffffffffffffffffffffffffffffff1673ffffffffffffffffffffffffffffffffffffffff163373ffffffffffffffffffffffffffffffffffffffff1614156155d257600115156002846040518082805190602001908083835b60208310615572578051825260208201915060208101905060208303925061554f565b6001836020036101000a038019825116818451168082178552505050505050905001915050908152602001604051809103902060040160009054906101000a900460ff161515146155c257600080fd5b6155cd838383614193565b6155de565b6155dd838383614193565b5b6155e9836000612fdd565b505050565b60006001836040518082805190602001908083835b602083106156265780518252602082019150602081019050602083039250615603565b6001836020036101000a0380198251168184511680821785525050505050509050019150509081526020016040518091039020600201549050606060018314156159035760008090505b6004805490508110156158bd576004818154811061568a57fe5b90600052602060002090600502016000018054600181600116156101000203166002900480601f01602080910402602001604051908101604052809291908181526020018280546001816001161561010002031660029004801561572f5780601f106157045761010080835404028352916020019161572f565b820191906000526020600020905b81548152906001019060200180831161571257829003601f168201915b50505050509150846040516020018082805190602001908083835b6020831061576d578051825260208201915060208101905060208303925061574a565b6001836020036101000a03801982511681845116808217855250505050505090500191505060405160208183030381529060405280519060200120826040516020018082805190602001908083835b602083106157df57805182526020820191506020810190506020830392506157bc565b6001836020036101000a0380198251168184511680821785525050505050509050019150506040516020818303038152906040528051906020012014156158b0576001856040518082805190602001908083835b602083106158565780518252602082019150602081019050602083039250615833565b6001836020036101000a0380198251168184511680821785525050505050509050019150509081526020016040518091039020600301546004828154811061589a57fe5b9060005260206000209060050201600301819055505b8080600101915050615670565b507f6806751c8cd46f3dca2d00384d611c69ab97013c98bbdcde7dd7d56b27c962b183600160405180838152602001821515151581526020019250505060405180910390a15b6002831415615be15760008090505b6003600084815260200190815260200160002080549050811015615b9b5760036000848152602001908152602001600020818154811061594e57fe5b90600052602060002090600502016000018054600181600116156101000203166002900480601f0160208091040260200160405190810160405280929190818152602001828054600181600116156101000203166002900480156159f35780601f106159c8576101008083540402835291602001916159f3565b820191906000526020600020905b8154815290600101906020018083116159d657829003601f168201915b50505050509150846040516020018082805190602001908083835b60208310615a315780518252602082019150602081019050602083039250615a0e565b6001836020036101000a03801982511681845116808217855250505050505090500191505060405160208183030381529060405280519060200120826040516020018082805190602001908083835b60208310615aa35780518252602082019150602081019050602083039250615a80565b6001836020036101000a038019825116818451168082178552505050505050905001915050604051602081830303815290604052805190602001201415615b8e576001856040518082805190602001908083835b60208310615b1a5780518252602082019150602081019050602083039250615af7565b6001836020036101000a038019825116818451168082178552505050505050905001915050908152602001604051809103902060030154600360008581526020019081526020016000208281548110615b6f57fe5b9060005260206000209060050201600301600082825403925050819055505b8080600101915050615912565b507f6806751c8cd46f3dca2d00384d611c69ab97013c98bbdcde7dd7d56b27c962b183600060405180838152602001821515151581526020019250505060405180910390a15b50505050565b6040518060a0016040528060608152602001600073ffffffffffffffffffffffffffffffffffffffff16815260200160008152602001600081526020016000151581525090565b828054600181600116156101000203166002900490600052602060002090601f016020900481019282601f10615c6f57805160ff1916838001178555615c9d565b82800160010185558215615c9d579182015b82811115615c9c578251825591602001919060010190615c81565b5b509050615caa9190615d7d565b5090565b828054600181600116156101000203166002900490600052602060002090601f016020900481019282601f10615ce75780548555615d24565b82800160010185558215615d2457600052602060002091601f016020900482015b82811115615d23578254825591600101919060010190615d08565b5b509050615d319190615d7d565b5090565b50805460018160011615610100020316600290046000825580601f10615d5b5750615d7a565b601f016020900490600052602060002090810190615d799190615d7d565b5b50565b615d9f91905b80821115615d9b576000816000905550600101615d83565b5090565b9056fea265627a7a72315820cf15474b4bb099f0a200fc4de5d34c8faacffe340defcbdf43a0c1256ab50a9a64736f6c63430005100032",
  "source": "pragma solidity ^0.5.16;\r\n// pragma experimental ABIEncoderV2;\r\n\r\ncontract ExchangePlatform{\r\n//Name of the smart contract \r\nstring public name;\r\n\r\n//Mappings \r\nmapping(string => Seller) public sellersMap;        //seller smart id is key and seller object is value\r\nmapping(string => Buyer) public buyersMap;         //buyer smart id is key and buyer object is value\r\nmapping(uint => Seller[]) public gridMap;         //grid number is key and grid array is value\r\n\r\n//Arrays\r\nSeller[] public sellersArr;   //Array of sellers\r\nSeller[] public grid1;       //Array of sellers in microgrid 1\r\nSeller[] public grid2;      //Array of sellers in microgrid 2\r\nSeller[] private grid3;     //Array of sellers in microgrid 3\r\nSeller[] private grid4;    //Array of sellers in microgrid 4\r\n\r\n//Global variables\r\nuint public TED = 0;\r\nuint public TES = 0; \r\nuint public demand = 0;\r\nuint public supply = 0;\r\nuint public pay = 0; \r\nbool public allow = false; \r\naddress payable seller = 0x0000000000000000000000000000000000000000; \r\n\r\n//Seller object\r\nstruct Seller{\r\n    string smartId;           //SamrtId of the seller\r\n    address payable owner;   //Wallet Address of the seller\r\n    uint microgrid;         //Microgrid number\r\n    uint energyAmount;     //Energy to be sold\r\n    bool sellStatus;     //seller available for selling if true     \r\n}\r\n\r\n//Buyer object\r\nstruct Buyer{\r\n    string smartId;            //SamrtId of the buyer\r\n    address payable owner;    //Wallet Address of the buyer\r\n    uint microgrid;          //Microgrid number\r\n    uint energyReq;         //Energy required by buyer\r\n    bool receiveStatus;    //Buyer can buy if false\r\n}\r\n\r\nconstructor() public {\r\n    name = \"Energy trading Platform\"; //Name of the contract\r\n\r\n    //Mapping of the microgrid arrays\r\n    gridMap[1] = grid1; \r\n    gridMap[2] = grid2;\r\n    gridMap[3] = grid3;\r\n    gridMap[4] = grid4; \r\n}\r\n\r\n//Events: \r\n\r\nevent Time( \r\n    bool allow\r\n);\r\n\r\nevent Updated(\r\n    uint TED,\r\n    uint TES, \r\n    uint demand, \r\n    uint supply\r\n);\r\n\r\nevent SellerChecked(\r\n    string smartId,\r\n    address payable owner,\r\n    uint microgrid,\r\n    uint energyAmount,\r\n    bool sellStatus\r\n);\r\n\r\nevent ArrayUpdated(\r\n    bool updated\r\n);\r\n\r\n//Event for creation of seller\r\nevent SellerCreated(\r\n    bool created\r\n);\r\n\r\n//Event for creation of buyer\r\nevent BuyerCreated(\r\n    string smartId,\r\n    address payable owner,  \r\n    uint microgrid, \r\n    uint energyReq, \r\n    bool receiveStatus\r\n);\r\n\r\nevent BuyerChecked(\r\n    string smartId,\r\n    address payable owner,  \r\n    uint microgrid, \r\n    uint energyReq, \r\n    bool receiveStatus\r\n);\r\n\r\nevent RequestCompleted(\r\n    string smartId,\r\n    address payable owner,  \r\n    uint microgrid, \r\n    uint energyReq, \r\n    bool receiveStatus\r\n);\r\n\r\nevent PriceCalculated(\r\n   uint price\r\n);\r\n\r\nevent EPVcalculated(\r\n   uint EPV\r\n);\r\n\r\nevent SellerUpdated(\r\n    uint sup,\r\n    bool done\r\n);\r\n\r\nevent SellerRemoved(\r\n    uint rm,\r\n    bool done\r\n);\r\n\r\n//Checks the time and sets global variable allow\r\nfunction checkTime(uint _time) public {\r\n    _time % 60 >= 0 && _time % 60 <= 15 ? allow = true : allow = false;\r\n    emit Time(allow); \r\n}\r\n\r\n//Updates the TED, TES, demand and supply \r\nfunction update(string memory _smartId, uint _energyDealt) public {\r\n   \r\n   //Time of registration \r\n   if(allow == true){   \r\n       //Checks sender for seller\r\n       if(msg.sender == sellersMap[_smartId].owner){\r\n        //Previous cycle's energy supply added to new cycle\r\n        supply != 0 ? TES = TES + supply + sellersMap[_smartId].energyAmount : TES = TES + sellersMap[_smartId].energyAmount;\r\n        //Current cycle's supply updated\r\n        supply = supply + TES;\r\n       }\r\n       \r\n       //Sender is buyer \r\n       else{\r\n        //Previous cycle's energy deamn is added to new cycle\r\n        demand != 0 ? TED = TED + demand + buyersMap[_smartId].energyReq : TED = TED + buyersMap[_smartId].energyReq;\r\n        //Current cycle's demand updated\r\n        demand = demand + TED; \r\n       }\r\n   }\r\n\r\n   //Time of transaction \r\n   if(allow == false){\r\n      //Energy sold subtracted from Current cycle's demand and supply\r\n      demand = demand - _energyDealt;\r\n      supply = supply - _energyDealt;\r\n   }\r\n   \r\n   emit Updated(TED, TES, demand, supply);\r\n}\r\n\r\n//Registeration of seller\r\nfunction registerSeller(string memory _smartId, uint _microgrid, uint _energyAmount) public {\r\n    \r\n    //Checks validity of seller\r\n    require(allow == true); //Registeration only for the first 15 mins of an hour \r\n    require(bytes(_smartId).length >=9 && bytes(_smartId).length <=12); //SmartId validity\r\n    require(_microgrid > 0 && _microgrid <= 4); //Microgrid validity\r\n    require(_energyAmount > 0);  //Energy amount validity\r\n\r\n    //Seller cannot be buyer in the same cycle\r\n    //Seller was buyer in previous cycle\r\n    if(msg.sender == buyersMap[_smartId].owner){\r\n        //Check if still a buyer\r\n        require(buyersMap[_smartId].receiveStatus == true); \r\n        //Create new seller of modify existing\r\n        checkSeller(_smartId, _microgrid, _energyAmount);\r\n    }\r\n    \r\n    //Seller was not buyer in previous cycle\r\n    else{\r\n        //Create new seller of modify existing\r\n        checkSeller(_smartId, _microgrid, _energyAmount);\r\n    }\r\n\r\n    //Update the TED, TES, demand and supply\r\n    update(_smartId,0);\r\n    \r\n    //Trigger the event of seller creation \r\n    //emit SellerCreated(true);\r\n}\r\n\r\nfunction checkSeller(string memory _smartId, uint _microgrid, uint _energyAmount) public{\r\n\r\n  //Seller already exists  \r\n  if(msg.sender == sellersMap[_smartId].owner){\r\n    //Not an active seller\r\n     if(sellersMap[_smartId].sellStatus == false){\r\n        sellersMap[_smartId].sellStatus = true; //Turn sellStatus true\r\n        sellersMap[_smartId].energyAmount = _energyAmount; //Update new energy amount\r\n      }\r\n\r\n     //sellStatus is true\r\n     else{\r\n        sellersMap[_smartId].energyAmount += _energyAmount; //Add to the energy Amount \r\n      }       \r\n\r\n      updateArr(_smartId, _microgrid, _energyAmount); //Update the sellers array and microgrid\r\n    } \r\n\r\n   //Seller does not exist \r\n   else{\r\n     //Create new seller and add to map and microgrid\r\n     sellersMap[_smartId] =  Seller(_smartId, msg.sender, _microgrid, _energyAmount, true); //Maps the seller's smartId to the seller object\r\n     sellersArr.push( Seller(_smartId, msg.sender, _microgrid, _energyAmount, true));  //Adds the seller object to the array of sellers \r\n     gridMap[_microgrid].push(sellersMap[_smartId]); \r\n    }\r\n\r\n    emit SellerChecked(_smartId, msg.sender, _microgrid, _energyAmount, true);\r\n}\r\n\r\n\r\nfunction updateArr(string memory _smartId, uint _grid, uint _energyAmount) public {\r\n\r\n    //Update Sellersarr  \r\n    string memory _id;\r\n    for(uint i = 0; i < sellersArr.length; i++){\r\n        _id = sellersArr[i].smartId;\r\n        if(keccak256(abi.encodePacked(_id)) == keccak256(abi.encodePacked(_smartId))){\r\n            sellersArr[i].energyAmount += _energyAmount;\r\n            \r\n            if(sellersArr[i].sellStatus == false ){\r\n               sellersArr[i].sellStatus = true;\r\n            }  \r\n        } \r\n    }\r\n    \r\n    //Update the microgrid\r\n    for(uint i = 0; i < gridMap[_grid].length; i++){\r\n        _id = gridMap[_grid][i].smartId;\r\n        if(keccak256(abi.encodePacked(_id)) == keccak256(abi.encodePacked(_smartId))){\r\n            gridMap[_grid][i].energyAmount += _energyAmount;\r\n            if(sellersArr[i].sellStatus == false ){\r\n               sellersArr[i].sellStatus = true;\r\n            }  \r\n        } \r\n     }\r\n    \r\n    emit ArrayUpdated(true);\r\n}\r\n\r\n//Registeration of Buyer \r\nfunction registerBuyer(string memory _smartId, uint _microgrid, uint _energyReq) public {\r\n\r\n    require(allow == true);\r\n    require(bytes(_smartId).length >=9 && bytes(_smartId).length <=12);\r\n    require(_microgrid > 0 && _microgrid <= 4);\r\n\r\n     //Buyer can not be seller in the same cycle\r\n     //Buyer was seller in previous cycle\r\n     if(msg.sender == sellersMap[_smartId].owner){\r\n        //Buyer is not seller in current cycle\r\n        require(sellersMap[_smartId].sellStatus == false);\r\n        //Create new buyer or update existing \r\n        checkBuyer(_smartId, _microgrid, _energyReq);\r\n    }    \r\n\r\n    else{\r\n        //Create new buyer or update existing \r\n        checkBuyer(_smartId, _microgrid, _energyReq);\r\n    }\r\n    \r\n    //Update the TED, TES, demand and supply\r\n    update(_smartId,0);\r\n\r\n    //Triggers event of buyer creation \r\n    //emit BuyerCreated(_smartId, msg.sender, _microgrid, _energyReq, false);\r\n}\r\n\r\nfunction checkBuyer(string memory _smartId, uint _microgrid, uint _energyReq) public {\r\n    //Buyer already exists\r\n    if(msg.sender == buyersMap[_smartId].owner){\r\n       //Buyer's request of previous cycle fulfilled\r\n       if(buyersMap[_smartId].receiveStatus == true){\r\n          buyersMap[_smartId].receiveStatus = false; //Can recieve energy \r\n          buyersMap[_smartId].energyReq = _energyReq; //Update the energy required \r\n        }\r\n        \r\n        //Buyer's request of previous cycle was not fullfilled\r\n        else{\r\n          buyersMap[_smartId].energyReq += _energyReq; //Update the energy required\r\n        }  \r\n\r\n        // emit BuyerChecked(true);\r\n    } \r\n    \r\n    //Buyer does not exist \r\n    else{\r\n        //Create new buyer\r\n        buyersMap[_smartId] =  Buyer(_smartId, msg.sender, _microgrid, _energyReq, false); //Maps the seller's smartId to the seller object\r\n        // emit BuyerChecked(false);\r\n    }    \r\n\r\n    emit BuyerChecked(_smartId, msg.sender, _microgrid, _energyReq, false);\r\n}\r\n\r\n//Buy request \r\nfunction buyRequest(string memory _smartId, uint _energyNeed) public payable{\r\n\r\n    require(allow == false); //Transaction time \r\n    require(msg.sender == buyersMap[_smartId].owner); //Buy request needs to be sent by buyer\r\n\r\n    Buyer memory _buyer = buyersMap[_smartId]; //fetch the buyer\r\n  \r\n    uint _cost = 0; \r\n    uint _EPV = 0;\r\n    uint _energyRec = 0;\r\n    bool _handled = false;\r\n\r\n    //Calculating price for each seller\r\n    _EPV = basePriceCalculation();\r\n\r\n    for(uint i = 0; i<gridMap[_buyer.microgrid].length; i++){\r\n       if(_handled == false){\r\n        //Energy present satisfies energy need \r\n        if(gridMap[_buyer.microgrid][i].energyAmount >= _energyNeed){\r\n             //Seller should be available for selling\r\n             if(gridMap[_buyer.microgrid][i].sellStatus == true){\r\n                  _cost = _energyNeed * _EPV * 10970000000000;  //Calcualte the cost \r\n                //    require(msg.sender.balance >= _cost, 'Not enough ether'); //Check the balance of buyer\r\n                   gridMap[_buyer.microgrid][i].energyAmount -= _energyNeed;//Update the seller energy amount in grid map \r\n\r\n                     //All energy sold \r\n                     if(gridMap[_buyer.microgrid][i].energyAmount == 0){\r\n                        gridMap[_buyer.microgrid][i].sellStatus = false; // Cannot sell anymore \r\n                        //Update in sellers map\r\n                        sellersMap[gridMap[_buyer.microgrid][i].smartId].sellStatus = false; \r\n                        sellersMap[gridMap[_buyer.microgrid][i].smartId].energyAmount = 0;\r\n                        removeSeller(gridMap[_buyer.microgrid][i].smartId, 1);//Remove seller from  sellers array\r\n                    }\r\n\r\n                    //Some energy left with seller\r\n                    else{\r\n                       sellersMap[gridMap[_buyer.microgrid][i].smartId].energyAmount -= _energyNeed; //Update in the map \r\n                       updateSeller(gridMap[_buyer.microgrid][i].smartId, 1);  //Update the sellers array \r\n                    }\r\n             \r\n                    _energyRec = _energyNeed;\r\n                    seller = gridMap[_buyer.microgrid][i].owner;\r\n                    _handled = true;\r\n            }   \r\n\r\n            else{\r\n                _handled == false;\r\n             }\r\n        }\r\n\r\n        //Energy present does not satisfy the need \r\n        else{\r\n            //Seller should be available for selling  \r\n            if(gridMap[_buyer.microgrid][i].sellStatus == true){\r\n                _cost = gridMap[_buyer.microgrid][i].energyAmount * _EPV * 10970000000000;  //Calculate the cost\r\n               _energyRec = _energyNeed - gridMap[_buyer.microgrid][i].energyAmount; //Update the energy recieved  \r\n               gridMap[_buyer.microgrid][i].energyAmount = 0; //Complete energy of seller used \r\n               gridMap[_buyer.microgrid][i].sellStatus = false; //Cannot sell anymore \r\n\r\n              //Update in sellers Map \r\n              sellersMap[gridMap[_buyer.microgrid][i].smartId].sellStatus = false; \r\n              sellersMap[gridMap[_buyer.microgrid][i].smartId].energyAmount = 0;\r\n\r\n              updateSeller(gridMap[_buyer.microgrid][i].smartId, 1);  //Update in sellers array \r\n              _handled = true; \r\n              seller = gridMap[_buyer.microgrid][i].owner;\r\n            } \r\n\r\n            else{\r\n                _handled = false;\r\n            }\r\n        }\r\n    }\r\n} \r\n         \r\n    //Energy need not fullfilled by same microgrid  \r\n    \r\n      //Search the seller's array\r\n      for(uint i = 0; i <= sellersArr.length; i++){\r\n        if(_handled == false){\r\n                 //The microgrid cannot be same \r\n        if(sellersArr[i].microgrid != _buyer.microgrid){\r\n              //Seller satisfies energy need \r\n            if(sellersArr[i].energyAmount >= _energyNeed){\r\n                //Seller should be available for selling \r\n               if(sellersArr[i].sellStatus == true){\r\n                  _cost = 2 * _energyNeed * _EPV * 10970000000000 ; //Calcualte the cost \r\n                  sellersArr[i].energyAmount -= _energyNeed;   //update the energy amount in sellers array \r\n                //All energy sold \r\n                  if(sellersArr[i].energyAmount == 0){\r\n                     sellersArr[i].sellStatus = false; // Cannot sell anymore \r\n                     //Update in sellers map\r\n                     sellersMap[sellersArr[i].smartId].sellStatus = false; \r\n                     sellersMap[sellersArr[i].smartId].energyAmount = 0;\r\n                     //Remove seller from  grid array\r\n                     removeSeller(sellersArr[i].smartId, 2);\r\n                  }\r\n\r\n                  //Some energy left with seller\r\n                  else{\r\n                     sellersMap[sellersArr[i].smartId].energyAmount -= _energyNeed; //Update in the sellers map \r\n                     updateSeller(sellersArr[i].smartId, 2); //Update the grid array \r\n                  }\r\n                  _energyRec = _energyNeed;\r\n                  seller = sellersArr[i].owner;\r\n                  _handled = true; \r\n               }\r\n\r\n                else{\r\n                    _handled = false;\r\n               }\r\n           } \r\n\r\n            else { \r\n                //Seller should be available for selling \r\n                if(sellersArr[i].sellStatus == true){\r\n                    _cost = 2 * sellersArr[i].energyAmount * _EPV * 10970000000000;  //Calculate the cost\r\n                    _energyRec = _energyNeed - sellersArr[i].energyAmount; //Update the energy need  \r\n                    sellersArr[i].energyAmount = 0; //Complete energy of seller used \r\n                    sellersArr[i].sellStatus = false; //Cannot sell anymore \r\n\r\n                    //Update in sellers Map \r\n                    sellersMap[sellersArr[i].smartId].sellStatus = false; \r\n                    sellersMap[sellersArr[i].smartId].energyAmount = 0;\r\n\r\n                    updateSeller(sellersArr[i].smartId, 2); //Update in grid array  \r\n                    seller = sellersArr[i].owner;\r\n                    _handled = true;\r\n                  }\r\n                \r\n                  else{\r\n                      _handled = false;\r\n                  }\r\n               }\r\n           }\r\n        }\r\n    }\r\n    \r\n    //Update buyer\r\n    buyersMap[_smartId].energyReq = buyersMap[_smartId].energyReq - _energyRec; \r\n    buyersMap[_smartId].energyReq == 0 ? buyersMap[_smartId].receiveStatus = true : buyersMap[_buyer.smartId].receiveStatus = false;\r\n    \r\n    //Update the TED, TES, demand and supply\r\n    update(_smartId, _energyRec);\r\n    //Update pay \r\n    pay = _cost;\r\n    emit RequestCompleted(_smartId, msg.sender, _buyer.microgrid, 0, buyersMap[_buyer.smartId].receiveStatus);\r\n}  \r\n\r\n\r\n\r\nfunction payment() public payable{\r\n      address payable _seller = seller;\r\n      if(seller != 0x0000000000000000000000000000000000000000){\r\n          _seller.transfer(msg.value);\r\n      }    \r\n\r\n      pay = 0; \r\n}\r\n\r\nfunction basePriceCalculation() public returns (uint){\r\n\r\n    uint _GDR = 0; \r\n    uint _EPV = 0; \r\n    uint _EPU = 6;\r\n\r\n    _GDR = TES/TED;\r\n\r\n    if(_GDR >= 1){\r\n\r\n        _EPV = _EPU/_GDR;\r\n\r\n        if(_EPV == 0){\r\n           _EPV = 1;\r\n        }      \r\n    }\r\n\r\n    else{\r\n        _EPV = _EPU; \r\n    }\r\n    \r\n    emit EPVcalculated(_EPV);\r\n    return _EPV;\r\n}\r\n\r\nfunction updateSeller(string memory _smartId, uint _x) public {\r\n\r\n    uint _grid = sellersMap[_smartId].microgrid; \r\n    string memory _id; \r\n    \r\n    if(_x == 1){\r\n     for(uint i = 0; i < sellersArr.length; i++){\r\n        _id = sellersArr[i].smartId;\r\n        if(keccak256(abi.encodePacked(_id)) == keccak256(abi.encodePacked(_smartId))){\r\n           sellersArr[i].energyAmount = sellersMap[_smartId].energyAmount;\r\n        }\r\n      }\r\n      emit SellerUpdated(_x, true);\r\n    }\r\n    \r\n    if(_x == 2){\r\n      for(uint i = 0; i < gridMap[_grid].length; i++){\r\n        _id = gridMap[_grid][i].smartId;\r\n        if(keccak256(abi.encodePacked(_id)) == keccak256(abi.encodePacked(_smartId))){\r\n           gridMap[_grid][i].energyAmount -= sellersMap[_smartId].energyAmount;\r\n        }\r\n      }\r\n      emit SellerUpdated(_x, false);\r\n    }  \r\n}\r\n\r\nfunction removeSeller(string memory _smartId, uint _x) public {\r\n    \r\n    uint _grid = sellersMap[_smartId].microgrid;\r\n    string memory _id;\r\n    \r\n    if(_x == 1){\r\n      for(uint i = 0; i < sellersArr.length; i++){\r\n        _id = sellersArr[i].smartId;\r\n        if(keccak256(abi.encodePacked(_id)) == keccak256(abi.encodePacked(_smartId))){\r\n            sellersArr[i] = sellersArr[i+1];\r\n        } \r\n      }\r\n      delete sellersArr[sellersArr.length - 1];\r\n     emit SellerRemoved(_x, true);\r\n    }\r\n\r\n    if(_x == 2){\r\n     for(uint i = 0; i < gridMap[_grid].length; i++){\r\n        _id = gridMap[_grid][i].smartId; \r\n        if(keccak256(abi.encodePacked(_id)) == keccak256(abi.encodePacked(_smartId))){\r\n            gridMap[_grid][i] = gridMap[_grid][i+1];\r\n        } \r\n      }\r\n      delete gridMap[_grid][gridMap[_grid].length - 1]; \r\n      emit SellerRemoved(_x, true);\r\n    }\r\n  }\r\n}",
  "sourcePath": "C:\\Users\\91838\\Desktop\\energyExchange\\src\\contracts\\ExchangePlatform.sol",
  "compiler": {
    "name": "solc",
    "version": "0.5.16+commit.9c3226ce.Emscripten.clang"
  },
  "schemaVersion": "3.4.7",
  "updatedAt": "2022-07-08T15:39:13.559Z",
  "devdoc": {
    "methods": {}
  },
  "userdoc": {
    "methods": {}
  }
}